{
  "transactions": [
    {
      "hash": "0x30e3406149c3a37a958894532017fc04c7325f717bfd40c5855ea6ac8184c3cc",
      "transactionType": "CALL",
      "contractName": null,
      "contractAddress": "0xd325d3f4ca459d6413e1a0d15d862b354d215a61",
      "function": "applyChainUpdates((uint64,bool,bytes,bytes,(bool,uint128,uint128),(bool,uint128,uint128))[])",
      "arguments": [
        "[(6898391096552792247, true, 0x000000000000000000000000f8ebd44f8aef3f89e0139feb3e1ea3691e714e50, 0x000000000000000000000000e6f7b4610c88f5d0bad2d019801fee2a83f7d0d7, (false, 0, 0), (false, 0, 0))]"
      ],
      "transaction": {
        "from": "0x186159375129bc6ae88da802977fda3d2a6f80d3",
        "to": "0xd325d3f4ca459d6413e1a0d15d862b354d215a61",
        "gas": "0x525dc",
        "value": "0x0",
        "input": "0xdb6327dc0000000000000000000000000000000000000000000000000000000000000020000000000000000000000000000000000000000000000000000000000000000100000000000000000000000000000000000000000000000000000000000000200000000000000000000000000000000000000000000000005fbc02272fbf20b70000000000000000000000000000000000000000000000000000000000000001000000000000000000000000000000000000000000000000000000000000014000000000000000000000000000000000000000000000000000000000000001800000000000000000000000000000000000000000000000000000000000000000000000000000000000000000000000000000000000000000000000000000000000000000000000000000000000000000000000000000000000000000000000000000000000000000000000000000000000000000000000000000000000000000000000000000000000000000000000000000000000000000000000000000000000000000000000000000000000000000000000000000000000000000000000000000000000000000000000000000000000000000000000000000000000000020000000000000000000000000f8ebd44f8aef3f89e0139feb3e1ea3691e714e500000000000000000000000000000000000000000000000000000000000000020000000000000000000000000e6f7b4610c88f5d0bad2d019801fee2a83f7d0d7",
        "nonce": "0x3c",
        "chainId": "0xaa36a7"
      },
      "additionalContracts": [],
      "isFixedGasLimit": false
    }
  ],
  "receipts": [
    {
      "status": "0x1",
      "cumulativeGasUsed": "0x1402f0e",
      "logs": [
        {
          "address": "0xd325d3f4ca459d6413e1a0d15d862b354d215a61",
          "topics": [
            "0x8d340f17e19058004c20453540862a9c62778504476f6756755cb33bcd6c38c2"
          ],
          "data": "0x0000000000000000000000000000000000000000000000005fbc02272fbf20b700000000000000000000000000000000000000000000000000000000000001000000000000000000000000000000000000000000000000000000000000000000000000000000000000000000000000000000000000000000000000000000000000000000000000000000000000000000000000000000000000000000000000000000000000000000000000000000000000000000000000000000000000000000000000000000000000000000000000000000000000000000000000000000000000000000000000000000000000000000000000000000000000000000000000000000000000000000000000000000000000000000000000000000000000000020000000000000000000000000e6f7b4610c88f5d0bad2d019801fee2a83f7d0d7",
          "blockHash": "0x52eb44bb7723d8f182e8722f8fb7c10491c308e105ceaa5c39647fb107b56dd2",
          "blockNumber": "0x7e8467",
          "transactionHash": "0x30e3406149c3a37a958894532017fc04c7325f717bfd40c5855ea6ac8184c3cc",
          "transactionIndex": "0x97",
          "logIndex": "0x17e",
          "removed": false
        }
      ],
      "logsBloom": "0x00000000000000400000000000000000000000000000000000000010000000000000000000000000000000000000000000000000000000000004000000000000000000000000000000000000000000000000000000000000000000000000000000000000000000000000000000000000000000000000000000000000000000000000000000000000000000000000000000010000000000000000000000000000000000000000000000000000000000000000000000000000000000000000000000000000000000000000000000000000000000000000000000000000000000000000000000000800000000000000000000000000000000000100000000000000",
      "type": "0x2",
      "transactionHash": "0x30e3406149c3a37a958894532017fc04c7325f717bfd40c5855ea6ac8184c3cc",
      "transactionIndex": "0x97",
      "blockHash": "0x52eb44bb7723d8f182e8722f8fb7c10491c308e105ceaa5c39647fb107b56dd2",
      "blockNumber": "0x7e8467",
      "gasUsed": "0x3ba1c",
      "effectiveGasPrice": "0xf4254",
      "from": "0x186159375129bc6ae88da802977fda3d2a6f80d3",
      "to": "0xd325d3f4ca459d6413e1a0d15d862b354d215a61",
      "contractAddress": null
    }
  ],
  "libraries": [],
  "pending": [],
  "returns": {},
  "timestamp": 1746817191,
  "chain": 11155111,
  "commit": "85a9d7f"
}